{
  "_format": "hh-sol-artifact-1",
  "contractName": "MinterRole",
  "sourceName": "contracts/erc20/base/MinterRole.sol",
  "abi": [
    {
      "anonymous": false,
      "inputs": [
        {
          "indexed": true,
          "internalType": "address",
          "name": "account",
          "type": "address"
        }
      ],
      "name": "MinterAdded",
      "type": "event"
    },
    {
      "anonymous": false,
      "inputs": [
        {
          "indexed": true,
          "internalType": "address",
          "name": "account",
          "type": "address"
        }
      ],
      "name": "MinterRemoved",
      "type": "event"
    },
    {
      "constant": true,
      "inputs": [
        {
          "internalType": "address",
          "name": "account",
          "type": "address"
        }
      ],
      "name": "isMinter",
      "outputs": [
        {
          "internalType": "bool",
          "name": "",
          "type": "bool"
        }
      ],
      "payable": false,
      "stateMutability": "view",
      "type": "function"
    },
    {
      "constant": false,
      "inputs": [],
      "name": "renounceMinter",
      "outputs": [],
      "payable": false,
      "stateMutability": "nonpayable",
      "type": "function"
    }
  ],
  "bytecode": "0x608060405234801561001057600080fd5b50610149806100206000396000f3fe608060405234801561001057600080fd5b50600436106100365760003560e01c8063986502751461003b578063aa271e1a14610045575b600080fd5b61004361007f565b005b61006b6004803603602081101561005b57600080fd5b50356001600160a01b0316610092565b604080519115158252519081900360200190f35b61009060003363ffffffff6100aa16565b565b60006100a4818363ffffffff6100df16565b92915050565b6001600160a01b0381166100bd57600080fd5b6001600160a01b0316600090815260209190915260409020805460ff19169055565b60006001600160a01b0382166100f457600080fd5b506001600160a01b03166000908152602091909152604090205460ff169056fea265627a7a72315820e2edb4a7bc7d9e11fc28b163483f2b4fff277f3819229d79563aa7a836b8567664736f6c63430005110032",
  "linkReferences": {},
  "deployedLinkReferences": {}
}