{
  "_format": "hh-sol-artifact-1",
  "contractName": "StakeTokenizer",
  "sourceName": "contracts/sfc/StakeTokenizer.sol",
  "abi": [
    {
      "constant": true,
      "inputs": [
        {
          "internalType": "address",
          "name": "sender",
          "type": "address"
        },
        {
          "internalType": "uint256",
          "name": "validatorID",
          "type": "uint256"
        }
      ],
      "name": "allowedToWithdrawStake",
      "outputs": [
        {
          "internalType": "bool",
          "name": "",
          "type": "bool"
        }
      ],
      "payable": false,
      "stateMutability": "view",
      "type": "function"
    },
    {
      "constant": false,
      "inputs": [
        {
          "internalType": "address",
          "name": "_sfc",
          "type": "address"
        },
        {
          "internalType": "address",
          "name": "_sFTMTokenAddress",
          "type": "address"
        }
      ],
      "name": "initialize",
      "outputs": [],
      "payable": false,
      "stateMutability": "nonpayable",
      "type": "function"
    },
    {
      "constant": false,
      "inputs": [
        {
          "internalType": "uint256",
          "name": "toValidatorID",
          "type": "uint256"
        }
      ],
      "name": "mintSFTM",
      "outputs": [],
      "payable": false,
      "stateMutability": "nonpayable",
      "type": "function"
    },
    {
      "constant": true,
      "inputs": [
        {
          "internalType": "address",
          "name": "",
          "type": "address"
        },
        {
          "internalType": "uint256",
          "name": "",
          "type": "uint256"
        }
      ],
      "name": "outstandingSFTM",
      "outputs": [
        {
          "internalType": "uint256",
          "name": "",
          "type": "uint256"
        }
      ],
      "payable": false,
      "stateMutability": "view",
      "type": "function"
    },
    {
      "constant": false,
      "inputs": [
        {
          "internalType": "uint256",
          "name": "validatorID",
          "type": "uint256"
        },
        {
          "internalType": "uint256",
          "name": "amount",
          "type": "uint256"
        }
      ],
      "name": "redeemSFTM",
      "outputs": [],
      "payable": false,
      "stateMutability": "nonpayable",
      "type": "function"
    },
    {
      "constant": true,
      "inputs": [],
      "name": "sFTMTokenAddress",
      "outputs": [
        {
          "internalType": "address",
          "name": "",
          "type": "address"
        }
      ],
      "payable": false,
      "stateMutability": "view",
      "type": "function"
    }
  ],
  "bytecode": "0x608060405234801561001057600080fd5b5061071c806100206000396000f3fe608060405234801561001057600080fd5b50600436106100625760003560e01c806321d585c314610067578063485cc955146100a75780634a37ec9d146100d75780635b04f4c8146100fa578063693c5e2414610138578063ca2d6fd81461015c575b600080fd5b6100936004803603604081101561007d57600080fd5b506001600160a01b038135169060200135610179565b604080519115158252519081900360200190f35b6100d5600480360360408110156100bd57600080fd5b506001600160a01b03813581169160200135166101a2565b005b6100d5600480360360408110156100ed57600080fd5b508035906020013561028d565b6101266004803603604081101561011057600080fd5b506001600160a01b038135169060200135610451565b60408051918252519081900360200190f35b61014061046e565b604080516001600160a01b039092168252519081900360200190f35b6100d56004803603602081101561017257600080fd5b503561047d565b6001600160a01b0391909116600090815260346020908152604080832093835292905220541590565b600054600160a81b900460ff16806101bd57506101bd6106b3565b806101d25750600054600160a01b900460ff16155b61020d5760405162461bcd60e51b815260040180806020018281038252602e8152602001806106ba602e913960400191505060405180910390fd5b600054600160a81b900460ff16158015610244576000805460ff60a01b1960ff60a81b19909116600160a81b1716600160a01b1790555b603380546001600160a01b038086166001600160a01b03199283161790925560358054928516929091169190911790558015610288576000805460ff60a81b191690555b505050565b3360009081526034602090815260408083208584529091529020548111156102fc576040805162461bcd60e51b815260206004820152601c60248201527f6c6f77206f75747374616e64696e67207346544d2062616c616e636500000000604482015290519081900360640190fd5b60355460408051636eb1769f60e11b8152336004820152306024820152905183926001600160a01b03169163dd62ed3e916044808301926020929190829003018186803b15801561034c57600080fd5b505afa158015610360573d6000803e3d6000fd5b505050506040513d602081101561037657600080fd5b505110156103c4576040805162461bcd60e51b8152602060048201526016602482015275696e73756666696369656e7420616c6c6f77616e636560501b604482015290519081900360640190fd5b33600081815260346020908152604080832086845290915280822080548590039055603554815163079cc67960e41b815260048101949094526024840185905290516001600160a01b03909116926379cc679092604480830193919282900301818387803b15801561043557600080fd5b505af1158015610449573d6000803e3d6000fd5b505050505050565b603460209081526000928352604080842090915290825290205481565b6035546001600160a01b031681565b60335460408051630ce0645f60e31b8152336004820181905260248201859052915191926000926001600160a01b039091169163670322f8916044808301926020929190829003018186803b1580156104d557600080fd5b505afa1580156104e9573d6000803e3d6000fd5b505050506040513d60208110156104ff57600080fd5b5051905080610555576040805162461bcd60e51b815260206004820152601a60248201527f64656c65676174696f6e2069736e2774206c6f636b6564207570000000000000604482015290519081900360640190fd5b6001600160a01b038216600090815260346020908152604080832086845290915290205481116105c5576040805162461bcd60e51b81526020600482015260166024820152751cd19513481a5cc8185b1c9958591e481b5a5b9d195960521b604482015290519081900360640190fd5b6001600160a01b038281166000818152603460209081526040808320888452825280832080549087905560355482516340c10f1960e01b81526004810196909652908703602486018190529151919516936340c10f199360448083019493928390030190829087803b15801561063a57600080fd5b505af115801561064e573d6000803e3d6000fd5b505050506040513d602081101561066457600080fd5b50516106ad576040805162461bcd60e51b81526020600482015260136024820152726661696c656420746f206d696e74207346544d60681b604482015290519081900360640190fd5b50505050565b303b159056fe436f6e747261637420696e7374616e63652068617320616c7265616479206265656e20696e697469616c697a6564a265627a7a7231582027ab1a4215ffd0f88d458347ca29e741bfcf0fdc136f4516190fa30d2ea5fde064736f6c63430005110032",
  "linkReferences": {},
  "deployedLinkReferences": {}
}