{
  "_format": "hh-sol-artifact-1",
  "contractName": "StubEvmWriter",
  "sourceName": "contracts/test/StubEvmWriter.sol",
  "abi": [
    {
      "constant": false,
      "inputs": [
        {
          "internalType": "address",
          "name": "acc",
          "type": "address"
        },
        {
          "internalType": "address",
          "name": "from",
          "type": "address"
        }
      ],
      "name": "copyCode",
      "outputs": [],
      "payable": false,
      "stateMutability": "nonpayable",
      "type": "function"
    },
    {
      "constant": false,
      "inputs": [
        {
          "internalType": "address",
          "name": "acc",
          "type": "address"
        },
        {
          "internalType": "uint256",
          "name": "diff",
          "type": "uint256"
        }
      ],
      "name": "incNonce",
      "outputs": [],
      "payable": false,
      "stateMutability": "nonpayable",
      "type": "function"
    },
    {
      "constant": false,
      "inputs": [
        {
          "internalType": "address",
          "name": "acc",
          "type": "address"
        },
        {
          "internalType": "uint256",
          "name": "value",
          "type": "uint256"
        }
      ],
      "name": "setBalance",
      "outputs": [],
      "payable": false,
      "stateMutability": "nonpayable",
      "type": "function"
    },
    {
      "constant": false,
      "inputs": [
        {
          "internalType": "address",
          "name": "acc",
          "type": "address"
        },
        {
          "internalType": "bytes32",
          "name": "key",
          "type": "bytes32"
        },
        {
          "internalType": "bytes32",
          "name": "value",
          "type": "bytes32"
        }
      ],
      "name": "setStorage",
      "outputs": [],
      "payable": false,
      "stateMutability": "nonpayable",
      "type": "function"
    },
    {
      "constant": false,
      "inputs": [
        {
          "internalType": "address",
          "name": "acc",
          "type": "address"
        },
        {
          "internalType": "address",
          "name": "with",
          "type": "address"
        }
      ],
      "name": "swapCode",
      "outputs": [],
      "payable": false,
      "stateMutability": "nonpayable",
      "type": "function"
    }
  ],
  "bytecode": "0x608060405234801561001057600080fd5b50610115806100206000396000f3fe6080604052348015600f57600080fd5b506004361060505760003560e01c806307690b2a14605557806339e503ab14608257806379bead381460b1578063d6a0c7af146055578063e30443bc1460b1575b600080fd5b608060048036036040811015606957600080fd5b506001600160a01b038135811691602001351660d7565b005b608060048036036060811015609657600080fd5b506001600160a01b03813516906020810135906040013560db565b60806004803603604081101560c557600080fd5b506001600160a01b0381351690602001355b5050565b50505056fea265627a7a7231582066fcd53ab4b74b80054993a372540e08135daa30e18982f6f55e8d3a9856629a64736f6c63430005110032",
  "linkReferences": {},
  "deployedLinkReferences": {}
}