{
  "_format": "hh-sol-artifact-1",
  "contractName": "NodeDriverAuth",
  "sourceName": "contracts/sfc/NodeDriver.sol",
  "abi": [
    {
      "anonymous": false,
      "inputs": [
        {
          "indexed": true,
          "internalType": "address",
          "name": "previousOwner",
          "type": "address"
        },
        {
          "indexed": true,
          "internalType": "address",
          "name": "newOwner",
          "type": "address"
        }
      ],
      "name": "OwnershipTransferred",
      "type": "event"
    },
    {
      "constant": false,
      "inputs": [
        {
          "internalType": "uint256",
          "name": "num",
          "type": "uint256"
        }
      ],
      "name": "advanceEpochs",
      "outputs": [],
      "payable": false,
      "stateMutability": "nonpayable",
      "type": "function"
    },
    {
      "constant": false,
      "inputs": [
        {
          "internalType": "address",
          "name": "acc",
          "type": "address"
        },
        {
          "internalType": "address",
          "name": "from",
          "type": "address"
        }
      ],
      "name": "copyCode",
      "outputs": [],
      "payable": false,
      "stateMutability": "nonpayable",
      "type": "function"
    },
    {
      "constant": false,
      "inputs": [
        {
          "internalType": "uint256",
          "name": "validatorID",
          "type": "uint256"
        },
        {
          "internalType": "uint256",
          "name": "status",
          "type": "uint256"
        }
      ],
      "name": "deactivateValidator",
      "outputs": [],
      "payable": false,
      "stateMutability": "nonpayable",
      "type": "function"
    },
    {
      "constant": false,
      "inputs": [
        {
          "internalType": "address",
          "name": "acc",
          "type": "address"
        },
        {
          "internalType": "uint256",
          "name": "diff",
          "type": "uint256"
        }
      ],
      "name": "incBalance",
      "outputs": [],
      "payable": false,
      "stateMutability": "nonpayable",
      "type": "function"
    },
    {
      "constant": false,
      "inputs": [
        {
          "internalType": "address",
          "name": "acc",
          "type": "address"
        },
        {
          "internalType": "uint256",
          "name": "diff",
          "type": "uint256"
        }
      ],
      "name": "incNonce",
      "outputs": [],
      "payable": false,
      "stateMutability": "nonpayable",
      "type": "function"
    },
    {
      "constant": false,
      "inputs": [
        {
          "internalType": "address",
          "name": "_sfc",
          "type": "address"
        },
        {
          "internalType": "address",
          "name": "_driver",
          "type": "address"
        },
        {
          "internalType": "address",
          "name": "_owner",
          "type": "address"
        }
      ],
      "name": "initialize",
      "outputs": [],
      "payable": false,
      "stateMutability": "nonpayable",
      "type": "function"
    },
    {
      "constant": true,
      "inputs": [],
      "name": "isOwner",
      "outputs": [
        {
          "internalType": "bool",
          "name": "",
          "type": "bool"
        }
      ],
      "payable": false,
      "stateMutability": "view",
      "type": "function"
    },
    {
      "constant": false,
      "inputs": [
        {
          "internalType": "address",
          "name": "newDriverAuth",
          "type": "address"
        }
      ],
      "name": "migrateTo",
      "outputs": [],
      "payable": false,
      "stateMutability": "nonpayable",
      "type": "function"
    },
    {
      "constant": true,
      "inputs": [],
      "name": "owner",
      "outputs": [
        {
          "internalType": "address",
          "name": "",
          "type": "address"
        }
      ],
      "payable": false,
      "stateMutability": "view",
      "type": "function"
    },
    {
      "constant": false,
      "inputs": [],
      "name": "renounceOwnership",
      "outputs": [],
      "payable": false,
      "stateMutability": "nonpayable",
      "type": "function"
    },
    {
      "constant": false,
      "inputs": [
        {
          "internalType": "uint256[]",
          "name": "offlineTimes",
          "type": "uint256[]"
        },
        {
          "internalType": "uint256[]",
          "name": "offlineBlocks",
          "type": "uint256[]"
        },
        {
          "internalType": "uint256[]",
          "name": "uptimes",
          "type": "uint256[]"
        },
        {
          "internalType": "uint256[]",
          "name": "originatedTxsFee",
          "type": "uint256[]"
        }
      ],
      "name": "sealEpoch",
      "outputs": [],
      "payable": false,
      "stateMutability": "nonpayable",
      "type": "function"
    },
    {
      "constant": false,
      "inputs": [
        {
          "internalType": "uint256[]",
          "name": "nextValidatorIDs",
          "type": "uint256[]"
        }
      ],
      "name": "sealEpochValidators",
      "outputs": [],
      "payable": false,
      "stateMutability": "nonpayable",
      "type": "function"
    },
    {
      "constant": false,
      "inputs": [
        {
          "internalType": "address",
          "name": "delegator",
          "type": "address"
        },
        {
          "internalType": "uint256",
          "name": "toValidatorID",
          "type": "uint256"
        },
        {
          "internalType": "uint256",
          "name": "stake",
          "type": "uint256"
        },
        {
          "internalType": "uint256",
          "name": "lockedStake",
          "type": "uint256"
        },
        {
          "internalType": "uint256",
          "name": "lockupFromEpoch",
          "type": "uint256"
        },
        {
          "internalType": "uint256",
          "name": "lockupEndTime",
          "type": "uint256"
        },
        {
          "internalType": "uint256",
          "name": "lockupDuration",
          "type": "uint256"
        },
        {
          "internalType": "uint256",
          "name": "earlyUnlockPenalty",
          "type": "uint256"
        },
        {
          "internalType": "uint256",
          "name": "rewards",
          "type": "uint256"
        }
      ],
      "name": "setGenesisDelegation",
      "outputs": [],
      "payable": false,
      "stateMutability": "nonpayable",
      "type": "function"
    },
    {
      "constant": false,
      "inputs": [
        {
          "internalType": "address",
          "name": "_auth",
          "type": "address"
        },
        {
          "internalType": "uint256",
          "name": "validatorID",
          "type": "uint256"
        },
        {
          "internalType": "bytes",
          "name": "pubkey",
          "type": "bytes"
        },
        {
          "internalType": "uint256",
          "name": "status",
          "type": "uint256"
        },
        {
          "internalType": "uint256",
          "name": "createdEpoch",
          "type": "uint256"
        },
        {
          "internalType": "uint256",
          "name": "createdTime",
          "type": "uint256"
        },
        {
          "internalType": "uint256",
          "name": "deactivatedEpoch",
          "type": "uint256"
        },
        {
          "internalType": "uint256",
          "name": "deactivatedTime",
          "type": "uint256"
        }
      ],
      "name": "setGenesisValidator",
      "outputs": [],
      "payable": false,
      "stateMutability": "nonpayable",
      "type": "function"
    },
    {
      "constant": false,
      "inputs": [
        {
          "internalType": "address",
          "name": "newOwner",
          "type": "address"
        }
      ],
      "name": "transferOwnership",
      "outputs": [],
      "payable": false,
      "stateMutability": "nonpayable",
      "type": "function"
    },
    {
      "constant": false,
      "inputs": [
        {
          "internalType": "bytes",
          "name": "diff",
          "type": "bytes"
        }
      ],
      "name": "updateNetworkRules",
      "outputs": [],
      "payable": false,
      "stateMutability": "nonpayable",
      "type": "function"
    },
    {
      "constant": false,
      "inputs": [
        {
          "internalType": "uint256",
          "name": "version",
          "type": "uint256"
        }
      ],
      "name": "updateNetworkVersion",
      "outputs": [],
      "payable": false,
      "stateMutability": "nonpayable",
      "type": "function"
    },
    {
      "constant": false,
      "inputs": [
        {
          "internalType": "uint256",
          "name": "validatorID",
          "type": "uint256"
        },
        {
          "internalType": "bytes",
          "name": "pubkey",
          "type": "bytes"
        }
      ],
      "name": "updateValidatorPubkey",
      "outputs": [],
      "payable": false,
      "stateMutability": "nonpayable",
      "type": "function"
    },
    {
      "constant": false,
      "inputs": [
        {
          "internalType": "uint256",
          "name": "validatorID",
          "type": "uint256"
        },
        {
          "internalType": "uint256",
          "name": "value",
          "type": "uint256"
        }
      ],
      "name": "updateValidatorWeight",
      "outputs": [],
      "payable": false,
      "stateMutability": "nonpayable",
      "type": "function"
    },
    {
      "constant": false,
      "inputs": [
        {
          "internalType": "address",
          "name": "acc",
          "type": "address"
        },
        {
          "internalType": "address",
          "name": "from",
          "type": "address"
        }
      ],
      "name": "upgradeCode",
      "outputs": [],
      "payable": false,
      "stateMutability": "nonpayable",
      "type": "function"
    }
  ],
  "bytecode": "0x608060405234801561001057600080fd5b506117fc806100206000396000f3fe608060405234801561001057600080fd5b506004361061012c5760003560e01c80638da5cb5b116100ad578063d6a0c7af11610071578063d6a0c7af14610488578063e08d7e66146104b6578063ebdf104c14610524578063f2fde38b14610682578063fd1b6ec1146106a85761012c565b80638da5cb5b1461037f5780638f32d59b146103a3578063a4066fbe146103bf578063b9cc6b1c146103e2578063c0c53b8b146104505761012c565b80634ddaf8f2116100f45780634ddaf8f21461025d5780634feb92f31461028357806366e7ea0f1461031f578063715018a61461034b57806379bead38146103535761012c565b80630aeeca001461013157806318f628d4146101505780631e702f83146101a8578063242a6e3f146101cb578063267ab44614610240575b600080fd5b61014e6004803603602081101561014757600080fd5b50356106d6565b005b61014e600480360361012081101561016757600080fd5b506001600160a01b038135169060208101359060408101359060608101359060808101359060a08101359060c08101359060e0810135906101000135610784565b61014e600480360360408110156101be57600080fd5b5080359060200135610878565b61014e600480360360408110156101e157600080fd5b81359190810190604081016020820135600160201b81111561020257600080fd5b82018360208201111561021457600080fd5b803590602001918460018302840111600160201b8311171561023557600080fd5b509092509050610931565b61014e6004803603602081101561025657600080fd5b5035610a2d565b61014e6004803603602081101561027357600080fd5b50356001600160a01b0316610ac1565b61014e600480360361010081101561029a57600080fd5b6001600160a01b0382351691602081013591810190606081016040820135600160201b8111156102c957600080fd5b8201836020820111156102db57600080fd5b803590602001918460018302840111600160201b831117156102fc57600080fd5b919350915080359060208101359060408101359060608101359060800135610b56565b61014e6004803603604081101561033557600080fd5b506001600160a01b038135169060200135610c70565b61014e610d94565b61014e6004803603604081101561036957600080fd5b506001600160a01b038135169060200135610e25565b610387610ec1565b604080516001600160a01b039092168252519081900360200190f35b6103ab610ed0565b604080519115158252519081900360200190f35b61014e600480360360408110156103d557600080fd5b5080359060200135610ee1565b61014e600480360360208110156103f857600080fd5b810190602081018135600160201b81111561041257600080fd5b82018360208201111561042457600080fd5b803590602001918460018302840111600160201b8311171561044557600080fd5b509092509050610f94565b61014e6004803603606081101561046657600080fd5b506001600160a01b038135811691602081013582169160409091013516611052565b61014e6004803603604081101561049e57600080fd5b506001600160a01b0381358116916020013516611130565b61014e600480360360208110156104cc57600080fd5b810190602081018135600160201b8111156104e657600080fd5b8201836020820111156104f857600080fd5b803590602001918460208302840111600160201b8311171561051957600080fd5b5090925090506111cd565b61014e6004803603608081101561053a57600080fd5b810190602081018135600160201b81111561055457600080fd5b82018360208201111561056657600080fd5b803590602001918460208302840111600160201b8311171561058757600080fd5b919390929091602081019035600160201b8111156105a457600080fd5b8201836020820111156105b657600080fd5b803590602001918460208302840111600160201b831117156105d757600080fd5b919390929091602081019035600160201b8111156105f457600080fd5b82018360208201111561060657600080fd5b803590602001918460208302840111600160201b8311171561062757600080fd5b919390929091602081019035600160201b81111561064457600080fd5b82018360208201111561065657600080fd5b803590602001918460208302840111600160201b8311171561067757600080fd5b509092509050611293565b61014e6004803603602081101561069857600080fd5b50356001600160a01b0316611418565b61014e600480360360408110156106be57600080fd5b506001600160a01b038135811691602001351661146b565b6106de610ed0565b61071d576040805162461bcd60e51b81526020600482018190526024820152600080516020611734833981519152604482015290519081900360640190fd5b606754604080516205776560e91b81526004810184905290516001600160a01b0390921691630aeeca009160248082019260009290919082900301818387803b15801561076957600080fd5b505af115801561077d573d6000803e3d6000fd5b5050505050565b6067546001600160a01b031633146107cd5760405162461bcd60e51b81526004018080602001828103825260258152602001806117a36025913960400191505060405180910390fd5b6066546040805163063d8a3560e21b81526001600160a01b038c81166004830152602482018c9052604482018b9052606482018a90526084820189905260a4820188905260c4820187905260e482018690526101048201859052915191909216916318f628d49161012480830192600092919082900301818387803b15801561085557600080fd5b505af1158015610869573d6000803e3d6000fd5b50505050505050505050505050565b6067546001600160a01b031633146108c15760405162461bcd60e51b81526004018080602001828103825260258152602001806117a36025913960400191505060405180910390fd5b60665460408051631e702f8360e01b8152600481018590526024810184905290516001600160a01b0390921691631e702f839160448082019260009290919082900301818387803b15801561091557600080fd5b505af1158015610929573d6000803e3d6000fd5b505050505050565b6066546001600160a01b03163314610990576040805162461bcd60e51b815260206004820152601e60248201527f63616c6c6572206973206e6f74207468652053464320636f6e74726163740000604482015290519081900360640190fd5b6067546040805163242a6e3f60e01b81526004810186815260248201928352604482018590526001600160a01b039093169263242a6e3f928792879287929091606401848480828437600081840152601f19601f820116905080830192505050945050505050600060405180830381600087803b158015610a1057600080fd5b505af1158015610a24573d6000803e3d6000fd5b50505050505050565b610a35610ed0565b610a74576040805162461bcd60e51b81526020600482018190526024820152600080516020611734833981519152604482015290519081900360640190fd5b6067546040805163133d5a2360e11b81526004810184905290516001600160a01b039092169163267ab4469160248082019260009290919082900301818387803b15801561076957600080fd5b610ac9610ed0565b610b08576040805162461bcd60e51b81526020600482018190526024820152600080516020611734833981519152604482015290519081900360640190fd5b6067546040805163da7fc24f60e01b81526001600160a01b0384811660048301529151919092169163da7fc24f91602480830192600092919082900301818387803b15801561076957600080fd5b6067546001600160a01b03163314610b9f5760405162461bcd60e51b81526004018080602001828103825260258152602001806117a36025913960400191505060405180910390fd5b606660009054906101000a90046001600160a01b03166001600160a01b0316634feb92f38a8a8a8a8a8a8a8a8a6040518a63ffffffff1660e01b8152600401808a6001600160a01b03166001600160a01b03168152602001898152602001806020018781526020018681526020018581526020018481526020018381526020018281038252898982818152602001925080828437600081840152601f19601f8201169050808301925050509a5050505050505050505050600060405180830381600087803b15801561085557600080fd5b6066546001600160a01b03163314610ccf576040805162461bcd60e51b815260206004820152601e60248201527f63616c6c6572206973206e6f74207468652053464320636f6e74726163740000604482015290519081900360640190fd5b6066546001600160a01b03838116911614610d1b5760405162461bcd60e51b81526004018080602001828103825260218152602001806117826021913960400191505060405180910390fd5b6067546001600160a01b039081169063e30443bc908490610d45908216318563ffffffff61150d16565b6040518363ffffffff1660e01b815260040180836001600160a01b03166001600160a01b0316815260200182815260200192505050600060405180830381600087803b15801561091557600080fd5b610d9c610ed0565b610ddb576040805162461bcd60e51b81526020600482018190526024820152600080516020611734833981519152604482015290519081900360640190fd5b6033546040516000916001600160a01b0316907f8be0079c531659141344cd1fd0a4f28419497f9722a3daafe3b4186f6b6457e0908390a3603380546001600160a01b0319169055565b610e2d610ed0565b610e6c576040805162461bcd60e51b81526020600482018190526024820152600080516020611734833981519152604482015290519081900360640190fd5b60675460408051630f37d5a760e31b81526001600160a01b03858116600483015260248201859052915191909216916379bead3891604480830192600092919082900301818387803b15801561091557600080fd5b6033546001600160a01b031690565b6033546001600160a01b0316331490565b6066546001600160a01b03163314610f40576040805162461bcd60e51b815260206004820152601e60248201527f63616c6c6572206973206e6f74207468652053464320636f6e74726163740000604482015290519081900360640190fd5b6067546040805163520337df60e11b8152600481018590526024810184905290516001600160a01b039092169163a4066fbe9160448082019260009290919082900301818387803b15801561091557600080fd5b610f9c610ed0565b610fdb576040805162461bcd60e51b81526020600482018190526024820152600080516020611734833981519152604482015290519081900360640190fd5b606754604051632e731ac760e21b8152602060048201908152602482018490526001600160a01b039092169163b9cc6b1c91859185918190604401848480828437600081840152601f19601f8201169050808301925050509350505050600060405180830381600087803b15801561091557600080fd5b600054610100900460ff168061106b575061106b61156e565b80611079575060005460ff16155b6110b45760405162461bcd60e51b815260040180806020018281038252602e815260200180611754602e913960400191505060405180910390fd5b600054610100900460ff161580156110df576000805460ff1961ff0019909116610100171660011790555b6110e882611574565b606780546001600160a01b038086166001600160a01b0319928316179092556066805492871692909116919091179055801561112a576000805461ff00191690555b50505050565b611138610ed0565b611177576040805162461bcd60e51b81526020600482018190526024820152600080516020611734833981519152604482015290519081900360640190fd5b6067546040805163d6a0c7af60e01b81526001600160a01b03858116600483015284811660248301529151919092169163d6a0c7af91604480830192600092919082900301818387803b15801561091557600080fd5b6067546001600160a01b031633146112165760405162461bcd60e51b81526004018080602001828103825260258152602001806117a36025913960400191505060405180910390fd5b606654604051637046bf3360e11b8152602060048201818152602483018590526001600160a01b039093169263e08d7e6692869286929182916044909101908590850280828437600081840152601f19601f8201169050808301925050509350505050600060405180830381600087803b15801561091557600080fd5b6067546001600160a01b031633146112dc5760405162461bcd60e51b81526004018080602001828103825260258152602001806117a36025913960400191505060405180910390fd5b606660009054906101000a90046001600160a01b03166001600160a01b031663ebdf104c89898989898989896040518963ffffffff1660e01b8152600401808060200180602001806020018060200185810385528d8d82818152602001925060200280828437600083820152601f01601f191690910186810385528b8152602090810191508c908c0280828437600083820152601f01601f19169091018681038452898152602090810191508a908a0280828437600083820152601f01601f19169091018681038352878152602090810191508890880280828437600081840152601f19601f8201169050808301925050509c50505050505050505050505050600060405180830381600087803b1580156113f657600080fd5b505af115801561140a573d6000803e3d6000fd5b505050505050505050505050565b611420610ed0565b61145f576040805162461bcd60e51b81526020600482018190526024820152600080516020611734833981519152604482015290519081900360640190fd5b61146881611666565b50565b611473610ed0565b6114b2576040805162461bcd60e51b81526020600482018190526024820152600080516020611734833981519152604482015290519081900360640190fd5b6114bb82611707565b80156114cb57506114cb81611707565b611177576040805162461bcd60e51b815260206004820152600e60248201526d1b9bdd08184818dbdb9d1c9858dd60921b604482015290519081900360640190fd5b600082820183811015611567576040805162461bcd60e51b815260206004820152601b60248201527f536166654d6174683a206164646974696f6e206f766572666c6f770000000000604482015290519081900360640190fd5b9392505050565b303b1590565b600054610100900460ff168061158d575061158d61156e565b8061159b575060005460ff16155b6115d65760405162461bcd60e51b815260040180806020018281038252602e815260200180611754602e913960400191505060405180910390fd5b600054610100900460ff16158015611601576000805460ff1961ff0019909116610100171660011790555b603380546001600160a01b0319166001600160a01b0384811691909117918290556040519116906000907f8be0079c531659141344cd1fd0a4f28419497f9722a3daafe3b4186f6b6457e0908290a38015611662576000805461ff00191690555b5050565b6001600160a01b0381166116ab5760405162461bcd60e51b815260040180806020018281038252602681526020018061170e6026913960400191505060405180910390fd5b6033546040516001600160a01b038084169216907f8be0079c531659141344cd1fd0a4f28419497f9722a3daafe3b4186f6b6457e090600090a3603380546001600160a01b0319166001600160a01b0392909216919091179055565b3b15159056fe4f776e61626c653a206e6577206f776e657220697320746865207a65726f20616464726573734f776e61626c653a2063616c6c6572206973206e6f7420746865206f776e6572436f6e747261637420696e7374616e63652068617320616c7265616479206265656e20696e697469616c697a6564726563697069656e74206973206e6f74207468652053464320636f6e747261637463616c6c6572206973206e6f7420746865204e6f646544726976657220636f6e7472616374a265627a7a7231582062a7af199daf85f87a4413454b91326929d3270acf008df66f5c97c944ad631764736f6c63430005110032",
  "linkReferences": {},
  "deployedLinkReferences": {}
}