{
  "_format": "hh-sol-artifact-1",
  "contractName": "NodeDriver",
  "sourceName": "contracts/sfc/NodeDriver.sol",
  "abi": [
    {
      "anonymous": false,
      "inputs": [
        {
          "indexed": false,
          "internalType": "uint256",
          "name": "num",
          "type": "uint256"
        }
      ],
      "name": "AdvanceEpochs",
      "type": "event"
    },
    {
      "anonymous": false,
      "inputs": [
        {
          "indexed": false,
          "internalType": "bytes",
          "name": "diff",
          "type": "bytes"
        }
      ],
      "name": "UpdateNetworkRules",
      "type": "event"
    },
    {
      "anonymous": false,
      "inputs": [
        {
          "indexed": false,
          "internalType": "uint256",
          "name": "version",
          "type": "uint256"
        }
      ],
      "name": "UpdateNetworkVersion",
      "type": "event"
    },
    {
      "anonymous": false,
      "inputs": [
        {
          "indexed": true,
          "internalType": "uint256",
          "name": "validatorID",
          "type": "uint256"
        },
        {
          "indexed": false,
          "internalType": "bytes",
          "name": "pubkey",
          "type": "bytes"
        }
      ],
      "name": "UpdateValidatorPubkey",
      "type": "event"
    },
    {
      "anonymous": false,
      "inputs": [
        {
          "indexed": true,
          "internalType": "uint256",
          "name": "validatorID",
          "type": "uint256"
        },
        {
          "indexed": false,
          "internalType": "uint256",
          "name": "weight",
          "type": "uint256"
        }
      ],
      "name": "UpdateValidatorWeight",
      "type": "event"
    },
    {
      "anonymous": false,
      "inputs": [
        {
          "indexed": true,
          "internalType": "address",
          "name": "backend",
          "type": "address"
        }
      ],
      "name": "UpdatedBackend",
      "type": "event"
    },
    {
      "constant": false,
      "inputs": [
        {
          "internalType": "uint256",
          "name": "num",
          "type": "uint256"
        }
      ],
      "name": "advanceEpochs",
      "outputs": [],
      "payable": false,
      "stateMutability": "nonpayable",
      "type": "function"
    },
    {
      "constant": false,
      "inputs": [
        {
          "internalType": "address",
          "name": "acc",
          "type": "address"
        },
        {
          "internalType": "address",
          "name": "from",
          "type": "address"
        }
      ],
      "name": "copyCode",
      "outputs": [],
      "payable": false,
      "stateMutability": "nonpayable",
      "type": "function"
    },
    {
      "constant": false,
      "inputs": [
        {
          "internalType": "uint256",
          "name": "validatorID",
          "type": "uint256"
        },
        {
          "internalType": "uint256",
          "name": "status",
          "type": "uint256"
        }
      ],
      "name": "deactivateValidator",
      "outputs": [],
      "payable": false,
      "stateMutability": "nonpayable",
      "type": "function"
    },
    {
      "constant": false,
      "inputs": [
        {
          "internalType": "address",
          "name": "acc",
          "type": "address"
        },
        {
          "internalType": "uint256",
          "name": "diff",
          "type": "uint256"
        }
      ],
      "name": "incNonce",
      "outputs": [],
      "payable": false,
      "stateMutability": "nonpayable",
      "type": "function"
    },
    {
      "constant": false,
      "inputs": [
        {
          "internalType": "address",
          "name": "_backend",
          "type": "address"
        },
        {
          "internalType": "address",
          "name": "_evmWriterAddress",
          "type": "address"
        }
      ],
      "name": "initialize",
      "outputs": [],
      "payable": false,
      "stateMutability": "nonpayable",
      "type": "function"
    },
    {
      "constant": false,
      "inputs": [
        {
          "internalType": "uint256[]",
          "name": "offlineTimes",
          "type": "uint256[]"
        },
        {
          "internalType": "uint256[]",
          "name": "offlineBlocks",
          "type": "uint256[]"
        },
        {
          "internalType": "uint256[]",
          "name": "uptimes",
          "type": "uint256[]"
        },
        {
          "internalType": "uint256[]",
          "name": "originatedTxsFee",
          "type": "uint256[]"
        }
      ],
      "name": "sealEpoch",
      "outputs": [],
      "payable": false,
      "stateMutability": "nonpayable",
      "type": "function"
    },
    {
      "constant": false,
      "inputs": [
        {
          "internalType": "uint256[]",
          "name": "nextValidatorIDs",
          "type": "uint256[]"
        }
      ],
      "name": "sealEpochValidators",
      "outputs": [],
      "payable": false,
      "stateMutability": "nonpayable",
      "type": "function"
    },
    {
      "constant": false,
      "inputs": [
        {
          "internalType": "address",
          "name": "_backend",
          "type": "address"
        }
      ],
      "name": "setBackend",
      "outputs": [],
      "payable": false,
      "stateMutability": "nonpayable",
      "type": "function"
    },
    {
      "constant": false,
      "inputs": [
        {
          "internalType": "address",
          "name": "acc",
          "type": "address"
        },
        {
          "internalType": "uint256",
          "name": "value",
          "type": "uint256"
        }
      ],
      "name": "setBalance",
      "outputs": [],
      "payable": false,
      "stateMutability": "nonpayable",
      "type": "function"
    },
    {
      "constant": false,
      "inputs": [
        {
          "internalType": "address",
          "name": "delegator",
          "type": "address"
        },
        {
          "internalType": "uint256",
          "name": "toValidatorID",
          "type": "uint256"
        },
        {
          "internalType": "uint256",
          "name": "stake",
          "type": "uint256"
        },
        {
          "internalType": "uint256",
          "name": "lockedStake",
          "type": "uint256"
        },
        {
          "internalType": "uint256",
          "name": "lockupFromEpoch",
          "type": "uint256"
        },
        {
          "internalType": "uint256",
          "name": "lockupEndTime",
          "type": "uint256"
        },
        {
          "internalType": "uint256",
          "name": "lockupDuration",
          "type": "uint256"
        },
        {
          "internalType": "uint256",
          "name": "earlyUnlockPenalty",
          "type": "uint256"
        },
        {
          "internalType": "uint256",
          "name": "rewards",
          "type": "uint256"
        }
      ],
      "name": "setGenesisDelegation",
      "outputs": [],
      "payable": false,
      "stateMutability": "nonpayable",
      "type": "function"
    },
    {
      "constant": false,
      "inputs": [
        {
          "internalType": "address",
          "name": "_auth",
          "type": "address"
        },
        {
          "internalType": "uint256",
          "name": "validatorID",
          "type": "uint256"
        },
        {
          "internalType": "bytes",
          "name": "pubkey",
          "type": "bytes"
        },
        {
          "internalType": "uint256",
          "name": "status",
          "type": "uint256"
        },
        {
          "internalType": "uint256",
          "name": "createdEpoch",
          "type": "uint256"
        },
        {
          "internalType": "uint256",
          "name": "createdTime",
          "type": "uint256"
        },
        {
          "internalType": "uint256",
          "name": "deactivatedEpoch",
          "type": "uint256"
        },
        {
          "internalType": "uint256",
          "name": "deactivatedTime",
          "type": "uint256"
        }
      ],
      "name": "setGenesisValidator",
      "outputs": [],
      "payable": false,
      "stateMutability": "nonpayable",
      "type": "function"
    },
    {
      "constant": false,
      "inputs": [
        {
          "internalType": "address",
          "name": "acc",
          "type": "address"
        },
        {
          "internalType": "bytes32",
          "name": "key",
          "type": "bytes32"
        },
        {
          "internalType": "bytes32",
          "name": "value",
          "type": "bytes32"
        }
      ],
      "name": "setStorage",
      "outputs": [],
      "payable": false,
      "stateMutability": "nonpayable",
      "type": "function"
    },
    {
      "constant": false,
      "inputs": [
        {
          "internalType": "address",
          "name": "acc",
          "type": "address"
        },
        {
          "internalType": "address",
          "name": "with",
          "type": "address"
        }
      ],
      "name": "swapCode",
      "outputs": [],
      "payable": false,
      "stateMutability": "nonpayable",
      "type": "function"
    },
    {
      "constant": false,
      "inputs": [
        {
          "internalType": "bytes",
          "name": "diff",
          "type": "bytes"
        }
      ],
      "name": "updateNetworkRules",
      "outputs": [],
      "payable": false,
      "stateMutability": "nonpayable",
      "type": "function"
    },
    {
      "constant": false,
      "inputs": [
        {
          "internalType": "uint256",
          "name": "version",
          "type": "uint256"
        }
      ],
      "name": "updateNetworkVersion",
      "outputs": [],
      "payable": false,
      "stateMutability": "nonpayable",
      "type": "function"
    },
    {
      "constant": false,
      "inputs": [
        {
          "internalType": "uint256",
          "name": "validatorID",
          "type": "uint256"
        },
        {
          "internalType": "bytes",
          "name": "pubkey",
          "type": "bytes"
        }
      ],
      "name": "updateValidatorPubkey",
      "outputs": [],
      "payable": false,
      "stateMutability": "nonpayable",
      "type": "function"
    },
    {
      "constant": false,
      "inputs": [
        {
          "internalType": "uint256",
          "name": "validatorID",
          "type": "uint256"
        },
        {
          "internalType": "uint256",
          "name": "value",
          "type": "uint256"
        }
      ],
      "name": "updateValidatorWeight",
      "outputs": [],
      "payable": false,
      "stateMutability": "nonpayable",
      "type": "function"
    }
  ],
  "bytecode": "0x608060405234801561001057600080fd5b506113d1806100206000396000f3fe608060405234801561001057600080fd5b506004361061010b5760003560e01c80634feb92f3116100a2578063d6a0c7af11610071578063d6a0c7af14610423578063da7fc24f14610451578063e08d7e6614610477578063e30443bc146104e5578063ebdf104c146105115761010b565b80634feb92f3146102ca57806379bead3814610366578063a4066fbe14610392578063b9cc6b1c146103b55761010b565b8063242a6e3f116100de578063242a6e3f146101d8578063267ab4461461024d57806339e503ab1461026a578063485cc9551461029c5761010b565b806307690b2a146101105780630aeeca001461014057806318f628d41461015d5780631e702f83146101b5575b600080fd5b61013e6004803603604081101561012657600080fd5b506001600160a01b038135811691602001351661066f565b005b61013e6004803603602081101561015657600080fd5b503561072e565b61013e600480360361012081101561017457600080fd5b506001600160a01b038135169060208101359060408101359060608101359060808101359060a08101359060c08101359060e08101359061010001356107b1565b61013e600480360360408110156101cb57600080fd5b508035906020013561089e565b61013e600480360360408110156101ee57600080fd5b81359190810190604081016020820135600160201b81111561020f57600080fd5b82018360208201111561022157600080fd5b803590602001918460018302840111600160201b8311171561024257600080fd5b509092509050610934565b61013e6004803603602081101561026357600080fd5b50356109e7565b61013e6004803603606081101561028057600080fd5b506001600160a01b038135169060208101359060400135610a6a565b61013e600480360360408110156102b257600080fd5b506001600160a01b0381358116916020013516610b30565b61013e60048036036101008110156102e157600080fd5b6001600160a01b0382351691602081013591810190606081016040820135600160201b81111561031057600080fd5b82018360208201111561032257600080fd5b803590602001918460018302840111600160201b8311171561034357600080fd5b919350915080359060208101359060408101359060608101359060800135610c36565b61013e6004803603604081101561037c57600080fd5b506001600160a01b038135169060200135610d49565b61013e600480360360408110156103a857600080fd5b5080359060200135610deb565b61013e600480360360208110156103cb57600080fd5b810190602081018135600160201b8111156103e557600080fd5b8201836020820111156103f757600080fd5b803590602001918460018302840111600160201b8311171561041857600080fd5b509092509050610e72565b61013e6004803603604081101561043957600080fd5b506001600160a01b0381358116916020013516610f23565b61013e6004803603602081101561046757600080fd5b50356001600160a01b0316610fc6565b61013e6004803603602081101561048d57600080fd5b810190602081018135600160201b8111156104a757600080fd5b8201836020820111156104b957600080fd5b803590602001918460208302840111600160201b831117156104da57600080fd5b509092509050611069565b61013e600480360360408110156104fb57600080fd5b506001600160a01b038135169060200135611128565b61013e6004803603608081101561052757600080fd5b810190602081018135600160201b81111561054157600080fd5b82018360208201111561055357600080fd5b803590602001918460208302840111600160201b8311171561057457600080fd5b919390929091602081019035600160201b81111561059157600080fd5b8201836020820111156105a357600080fd5b803590602001918460208302840111600160201b831117156105c457600080fd5b919390929091602081019035600160201b8111156105e157600080fd5b8201836020820111156105f357600080fd5b803590602001918460208302840111600160201b8311171561061457600080fd5b919390929091602081019035600160201b81111561063157600080fd5b82018360208201111561064357600080fd5b803590602001918460208302840111600160201b8311171561066457600080fd5b5090925090506111ca565b6034546001600160a01b031633146106bc576040805162461bcd60e51b8152602060048201526019602482015260008051602061134f833981519152604482015290519081900360640190fd5b603554604080516303b4859560e11b81526001600160a01b0385811660048301528481166024830152915191909216916307690b2a91604480830192600092919082900301818387803b15801561071257600080fd5b505af1158015610726573d6000803e3d6000fd5b505050505050565b6034546001600160a01b0316331461077b576040805162461bcd60e51b8152602060048201526019602482015260008051602061134f833981519152604482015290519081900360640190fd5b6040805182815290517f0151256d62457b809bbc891b1f81c6dd0b9987552c70ce915b519750cd434dd19181900360200190a150565b33156107f3576040805162461bcd60e51b815260206004820152600c60248201526b6e6f742063616c6c61626c6560a01b604482015290519081900360640190fd5b6034546040805163063d8a3560e21b81526001600160a01b038c81166004830152602482018c9052604482018b9052606482018a90526084820189905260a4820188905260c4820187905260e482018690526101048201859052915191909216916318f628d49161012480830192600092919082900301818387803b15801561087b57600080fd5b505af115801561088f573d6000803e3d6000fd5b50505050505050505050505050565b33156108e0576040805162461bcd60e51b815260206004820152600c60248201526b6e6f742063616c6c61626c6560a01b604482015290519081900360640190fd5b60345460408051631e702f8360e01b8152600481018590526024810184905290516001600160a01b0390921691631e702f839160448082019260009290919082900301818387803b15801561071257600080fd5b6034546001600160a01b03163314610981576040805162461bcd60e51b8152602060048201526019602482015260008051602061134f833981519152604482015290519081900360640190fd5b827f0f0ef1ab97439def0a9d2c6d9dc166207f1b13b99e62b442b2993d6153c63a6e838360405180806020018281038252848482818152602001925080828437600083820152604051601f909101601f19169092018290039550909350505050a2505050565b6034546001600160a01b03163314610a34576040805162461bcd60e51b8152602060048201526019602482015260008051602061134f833981519152604482015290519081900360640190fd5b6040805182815290517f2ccdfd47cf0c1f1069d949f1789bb79b2f12821f021634fc835af1de66ea2feb9181900360200190a150565b6034546001600160a01b03163314610ab7576040805162461bcd60e51b8152602060048201526019602482015260008051602061134f833981519152604482015290519081900360640190fd5b603554604080516339e503ab60e01b81526001600160a01b0386811660048301526024820186905260448201859052915191909216916339e503ab91606480830192600092919082900301818387803b158015610b1357600080fd5b505af1158015610b27573d6000803e3d6000fd5b50505050505050565b600054610100900460ff1680610b495750610b49611348565b80610b57575060005460ff16155b610b925760405162461bcd60e51b815260040180806020018281038252602e81526020018061136f602e913960400191505060405180910390fd5b600054610100900460ff16158015610bbd576000805460ff1961ff0019909116610100171660011790555b603480546001600160a01b0319166001600160a01b0385169081179091556040517f64ee8f7bfc37fc205d7194ee3d64947ab7b57e663cd0d1abd3ef24503583069390600090a2603580546001600160a01b0319166001600160a01b0384161790558015610c31576000805461ff00191690555b505050565b3315610c78576040805162461bcd60e51b815260206004820152600c60248201526b6e6f742063616c6c61626c6560a01b604482015290519081900360640190fd5b603460009054906101000a90046001600160a01b03166001600160a01b0316634feb92f38a8a8a8a8a8a8a8a8a6040518a63ffffffff1660e01b8152600401808a6001600160a01b03166001600160a01b03168152602001898152602001806020018781526020018681526020018581526020018481526020018381526020018281038252898982818152602001925080828437600081840152601f19601f8201169050808301925050509a5050505050505050505050600060405180830381600087803b15801561087b57600080fd5b6034546001600160a01b03163314610d96576040805162461bcd60e51b8152602060048201526019602482015260008051602061134f833981519152604482015290519081900360640190fd5b60355460408051630f37d5a760e31b81526001600160a01b03858116600483015260248201859052915191909216916379bead3891604480830192600092919082900301818387803b15801561071257600080fd5b6034546001600160a01b03163314610e38576040805162461bcd60e51b8152602060048201526019602482015260008051602061134f833981519152604482015290519081900360640190fd5b60408051828152905183917fb975807576e3b1461be7de07ebf7d20e4790ed802d7a0c4fdd0a1a13df72a935919081900360200190a25050565b6034546001600160a01b03163314610ebf576040805162461bcd60e51b8152602060048201526019602482015260008051602061134f833981519152604482015290519081900360640190fd5b7f47d10eed096a44e3d0abc586c7e3a5d6cb5358cc90e7d437cd0627f7e765fb99828260405180806020018281038252848482818152602001925080828437600083820152604051601f909101601f19169092018290039550909350505050a15050565b6034546001600160a01b03163314610f70576040805162461bcd60e51b8152602060048201526019602482015260008051602061134f833981519152604482015290519081900360640190fd5b6035546040805163d6a0c7af60e01b81526001600160a01b03858116600483015284811660248301529151919092169163d6a0c7af91604480830192600092919082900301818387803b15801561071257600080fd5b6034546001600160a01b03163314611013576040805162461bcd60e51b8152602060048201526019602482015260008051602061134f833981519152604482015290519081900360640190fd5b6040516001600160a01b038216907f64ee8f7bfc37fc205d7194ee3d64947ab7b57e663cd0d1abd3ef24503583069390600090a2603480546001600160a01b0319166001600160a01b0392909216919091179055565b33156110ab576040805162461bcd60e51b815260206004820152600c60248201526b6e6f742063616c6c61626c6560a01b604482015290519081900360640190fd5b603454604051637046bf3360e11b8152602060048201818152602483018590526001600160a01b039093169263e08d7e6692869286929182916044909101908590850280828437600081840152601f19601f8201169050808301925050509350505050600060405180830381600087803b15801561071257600080fd5b6034546001600160a01b03163314611175576040805162461bcd60e51b8152602060048201526019602482015260008051602061134f833981519152604482015290519081900360640190fd5b603554604080516338c110ef60e21b81526001600160a01b038581166004830152602482018590529151919092169163e30443bc91604480830192600092919082900301818387803b15801561071257600080fd5b331561120c576040805162461bcd60e51b815260206004820152600c60248201526b6e6f742063616c6c61626c6560a01b604482015290519081900360640190fd5b603460009054906101000a90046001600160a01b03166001600160a01b031663ebdf104c89898989898989896040518963ffffffff1660e01b8152600401808060200180602001806020018060200185810385528d8d82818152602001925060200280828437600083820152601f01601f191690910186810385528b8152602090810191508c908c0280828437600083820152601f01601f19169091018681038452898152602090810191508a908a0280828437600083820152601f01601f19169091018681038352878152602090810191508890880280828437600081840152601f19601f8201169050808301925050509c50505050505050505050505050600060405180830381600087803b15801561132657600080fd5b505af115801561133a573d6000803e3d6000fd5b505050505050505050505050565b303b159056fe63616c6c6572206973206e6f7420746865206261636b656e6400000000000000436f6e747261637420696e7374616e63652068617320616c7265616479206265656e20696e697469616c697a6564a265627a7a72315820bce64649cfe7a5e93e5f23ebcb50ed29902d3c707aaf858595e99f669715401164736f6c63430005110032",
  "linkReferences": {},
  "deployedLinkReferences": {}
}