{
  "_format": "hh-sol-artifact-1",
  "contractName": "NetworkInitializer",
  "sourceName": "contracts/sfc/NetworkInitializer.sol",
  "abi": [
    {
      "constant": false,
      "inputs": [
        {
          "internalType": "uint256",
          "name": "sealedEpoch",
          "type": "uint256"
        },
        {
          "internalType": "uint256",
          "name": "totalSupply",
          "type": "uint256"
        },
        {
          "internalType": "address",
          "name": "_sfc",
          "type": "address"
        },
        {
          "internalType": "address",
          "name": "_auth",
          "type": "address"
        },
        {
          "internalType": "address",
          "name": "_driver",
          "type": "address"
        },
        {
          "internalType": "address",
          "name": "_evmWriter",
          "type": "address"
        },
        {
          "internalType": "address",
          "name": "_owner",
          "type": "address"
        }
      ],
      "name": "initializeAll",
      "outputs": [],
      "payable": false,
      "stateMutability": "nonpayable",
      "type": "function"
    }
  ],
  "bytecode": "0x608060405234801561001057600080fd5b50610217806100206000396000f3fe608060405234801561001057600080fd5b506004361061002b5760003560e01c8063c80e151314610030575b600080fd5b610084600480360360e081101561004657600080fd5b508035906020810135906001600160a01b0360408201358116916060810135821691608082013581169160a081013582169160c09091013516610086565b005b6040805163485cc95560e01b81526001600160a01b038681166004830152848116602483015291519185169163485cc9559160448082019260009290919082900301818387803b1580156100d957600080fd5b505af11580156100ed573d6000803e3d6000fd5b50506040805163c0c53b8b60e01b81526001600160a01b038981166004830152878116602483015285811660448301529151918816935063c0c53b8b925060648082019260009290919082900301818387803b15801561014c57600080fd5b505af1158015610160573d6000803e3d6000fd5b50506040805163019e272960e01b8152600481018b9052602481018a90526001600160a01b03888116604483015285811660648301529151918916935063019e2729925060848082019260009290919082900301818387803b1580156101c557600080fd5b505af11580156101d9573d6000803e3d6000fd5b50600092505050fffea265627a7a7231582041f97fe65bc5c055ebdd0f0ececae1ea7287f232cf3533eddc13bbd6b5abcc8664736f6c63430005110032",
  "linkReferences": {},
  "deployedLinkReferences": {}
}